{
  "address": "0x8AEEE42cf218DDDEBFEaeC71350A5f6D1304989d",
  "abi": [
    {
      "inputs": [
        {
          "internalType": "address",
          "name": "poolRegistryAddress",
          "type": "address"
        }
      ],
      "name": "getAllPools",
      "outputs": [
        {
          "components": [
            {
              "internalType": "string",
              "name": "name",
              "type": "string"
            },
            {
              "internalType": "address",
              "name": "creator",
              "type": "address"
            },
            {
              "internalType": "address",
              "name": "comptroller",
              "type": "address"
            },
            {
              "internalType": "uint256",
              "name": "blockPosted",
              "type": "uint256"
            },
            {
              "internalType": "uint256",
              "name": "timestampPosted",
              "type": "uint256"
            },
            {
              "internalType": "string",
              "name": "category",
              "type": "string"
            },
            {
              "internalType": "string",
              "name": "logoURL",
              "type": "string"
            },
            {
              "internalType": "string",
              "name": "description",
              "type": "string"
            },
            {
              "internalType": "address",
              "name": "priceOracle",
              "type": "address"
            },
            {
              "internalType": "uint256",
              "name": "closeFactor",
              "type": "uint256"
            },
            {
              "internalType": "uint256",
              "name": "liquidationIncentive",
              "type": "uint256"
            },
            {
              "internalType": "uint256",
              "name": "minLiquidatableCollateral",
              "type": "uint256"
            },
            {
              "components": [
                {
                  "internalType": "address",
                  "name": "leToken",
                  "type": "address"
                },
                {
                  "internalType": "uint256",
                  "name": "exchangeRateCurrent",
                  "type": "uint256"
                },
                {
                  "internalType": "uint256",
                  "name": "supplyRatePerBlock",
                  "type": "uint256"
                },
                {
                  "internalType": "uint256",
                  "name": "borrowRatePerBlock",
                  "type": "uint256"
                },
                {
                  "internalType": "uint256",
                  "name": "reserveFactorMantissa",
                  "type": "uint256"
                },
                {
                  "internalType": "uint256",
                  "name": "supplyCaps",
                  "type": "uint256"
                },
                {
                  "internalType": "uint256",
                  "name": "borrowCaps",
                  "type": "uint256"
                },
                {
                  "internalType": "uint256",
                  "name": "totalBorrows",
                  "type": "uint256"
                },
                {
                  "internalType": "uint256",
                  "name": "totalReserves",
                  "type": "uint256"
                },
                {
                  "internalType": "uint256",
                  "name": "totalSupply",
                  "type": "uint256"
                },
                {
                  "internalType": "uint256",
                  "name": "totalCash",
                  "type": "uint256"
                },
                {
                  "internalType": "bool",
                  "name": "isListed",
                  "type": "bool"
                },
                {
                  "internalType": "uint256",
                  "name": "collateralFactorMantissa",
                  "type": "uint256"
                },
                {
                  "internalType": "address",
                  "name": "underlyingAssetAddress",
                  "type": "address"
                },
                {
                  "internalType": "uint256",
                  "name": "leTokenDecimals",
                  "type": "uint256"
                },
                {
                  "internalType": "uint256",
                  "name": "underlyingDecimals",
                  "type": "uint256"
                },
                {
                  "internalType": "uint256",
                  "name": "pausedActions",
                  "type": "uint256"
                }
              ],
              "internalType": "struct PoolLens.LeTokenMetadata[]",
              "name": "leTokens",
              "type": "tuple[]"
            }
          ],
          "internalType": "struct PoolLens.PoolData[]",
          "name": "",
          "type": "tuple[]"
        }
      ],
      "stateMutability": "view",
      "type": "function"
    },
    {
      "inputs": [
        {
          "internalType": "address",
          "name": "poolRegistryAddress",
          "type": "address"
        },
        {
          "internalType": "address",
          "name": "comptroller",
          "type": "address"
        },
        {
          "internalType": "address",
          "name": "asset",
          "type": "address"
        }
      ],
      "name": "getLeTokenForAsset",
      "outputs": [
        {
          "internalType": "address",
          "name": "",
          "type": "address"
        }
      ],
      "stateMutability": "view",
      "type": "function"
    },
    {
      "inputs": [
        {
          "internalType": "address",
          "name": "account",
          "type": "address"
        },
        {
          "internalType": "address",
          "name": "comptrollerAddress",
          "type": "address"
        }
      ],
      "name": "getPendingRewards",
      "outputs": [
        {
          "components": [
            {
              "internalType": "address",
              "name": "distributorAddress",
              "type": "address"
            },
            {
              "internalType": "address",
              "name": "rewardTokenAddress",
              "type": "address"
            },
            {
              "internalType": "uint256",
              "name": "totalRewards",
              "type": "uint256"
            },
            {
              "components": [
                {
                  "internalType": "address",
                  "name": "leTokenAddress",
                  "type": "address"
                },
                {
                  "internalType": "uint256",
                  "name": "amount",
                  "type": "uint256"
                }
              ],
              "internalType": "struct PoolLens.PendingReward[]",
              "name": "pendingRewards",
              "type": "tuple[]"
            }
          ],
          "internalType": "struct PoolLens.RewardSummary[]",
          "name": "",
          "type": "tuple[]"
        }
      ],
      "stateMutability": "view",
      "type": "function"
    },
    {
      "inputs": [
        {
          "internalType": "address",
          "name": "comptrollerAddress",
          "type": "address"
        }
      ],
      "name": "getPoolBadDebt",
      "outputs": [
        {
          "components": [
            {
              "internalType": "address",
              "name": "comptroller",
              "type": "address"
            },
            {
              "internalType": "uint256",
              "name": "totalBadDebtUsd",
              "type": "uint256"
            },
            {
              "components": [
                {
                  "internalType": "address",
                  "name": "leTokenAddress",
                  "type": "address"
                },
                {
                  "internalType": "uint256",
                  "name": "badDebtUsd",
                  "type": "uint256"
                }
              ],
              "internalType": "struct PoolLens.BadDebt[]",
              "name": "badDebts",
              "type": "tuple[]"
            }
          ],
          "internalType": "struct PoolLens.BadDebtSummary",
          "name": "",
          "type": "tuple"
        }
      ],
      "stateMutability": "view",
      "type": "function"
    },
    {
      "inputs": [
        {
          "internalType": "address",
          "name": "poolRegistryAddress",
          "type": "address"
        },
        {
          "internalType": "address",
          "name": "comptroller",
          "type": "address"
        }
      ],
      "name": "getPoolByComptroller",
      "outputs": [
        {
          "components": [
            {
              "internalType": "string",
              "name": "name",
              "type": "string"
            },
            {
              "internalType": "address",
              "name": "creator",
              "type": "address"
            },
            {
              "internalType": "address",
              "name": "comptroller",
              "type": "address"
            },
            {
              "internalType": "uint256",
              "name": "blockPosted",
              "type": "uint256"
            },
            {
              "internalType": "uint256",
              "name": "timestampPosted",
              "type": "uint256"
            },
            {
              "internalType": "string",
              "name": "category",
              "type": "string"
            },
            {
              "internalType": "string",
              "name": "logoURL",
              "type": "string"
            },
            {
              "internalType": "string",
              "name": "description",
              "type": "string"
            },
            {
              "internalType": "address",
              "name": "priceOracle",
              "type": "address"
            },
            {
              "internalType": "uint256",
              "name": "closeFactor",
              "type": "uint256"
            },
            {
              "internalType": "uint256",
              "name": "liquidationIncentive",
              "type": "uint256"
            },
            {
              "internalType": "uint256",
              "name": "minLiquidatableCollateral",
              "type": "uint256"
            },
            {
              "components": [
                {
                  "internalType": "address",
                  "name": "leToken",
                  "type": "address"
                },
                {
                  "internalType": "uint256",
                  "name": "exchangeRateCurrent",
                  "type": "uint256"
                },
                {
                  "internalType": "uint256",
                  "name": "supplyRatePerBlock",
                  "type": "uint256"
                },
                {
                  "internalType": "uint256",
                  "name": "borrowRatePerBlock",
                  "type": "uint256"
                },
                {
                  "internalType": "uint256",
                  "name": "reserveFactorMantissa",
                  "type": "uint256"
                },
                {
                  "internalType": "uint256",
                  "name": "supplyCaps",
                  "type": "uint256"
                },
                {
                  "internalType": "uint256",
                  "name": "borrowCaps",
                  "type": "uint256"
                },
                {
                  "internalType": "uint256",
                  "name": "totalBorrows",
                  "type": "uint256"
                },
                {
                  "internalType": "uint256",
                  "name": "totalReserves",
                  "type": "uint256"
                },
                {
                  "internalType": "uint256",
                  "name": "totalSupply",
                  "type": "uint256"
                },
                {
                  "internalType": "uint256",
                  "name": "totalCash",
                  "type": "uint256"
                },
                {
                  "internalType": "bool",
                  "name": "isListed",
                  "type": "bool"
                },
                {
                  "internalType": "uint256",
                  "name": "collateralFactorMantissa",
                  "type": "uint256"
                },
                {
                  "internalType": "address",
                  "name": "underlyingAssetAddress",
                  "type": "address"
                },
                {
                  "internalType": "uint256",
                  "name": "leTokenDecimals",
                  "type": "uint256"
                },
                {
                  "internalType": "uint256",
                  "name": "underlyingDecimals",
                  "type": "uint256"
                },
                {
                  "internalType": "uint256",
                  "name": "pausedActions",
                  "type": "uint256"
                }
              ],
              "internalType": "struct PoolLens.LeTokenMetadata[]",
              "name": "leTokens",
              "type": "tuple[]"
            }
          ],
          "internalType": "struct PoolLens.PoolData",
          "name": "",
          "type": "tuple"
        }
      ],
      "stateMutability": "view",
      "type": "function"
    },
    {
      "inputs": [
        {
          "internalType": "address",
          "name": "poolRegistryAddress",
          "type": "address"
        },
        {
          "components": [
            {
              "internalType": "string",
              "name": "name",
              "type": "string"
            },
            {
              "internalType": "address",
              "name": "creator",
              "type": "address"
            },
            {
              "internalType": "address",
              "name": "comptroller",
              "type": "address"
            },
            {
              "internalType": "uint256",
              "name": "blockPosted",
              "type": "uint256"
            },
            {
              "internalType": "uint256",
              "name": "timestampPosted",
              "type": "uint256"
            }
          ],
          "internalType": "struct PoolRegistryInterface.LendLandPool",
          "name": "lendlandPool",
          "type": "tuple"
        }
      ],
      "name": "getPoolDataFromLendLandPool",
      "outputs": [
        {
          "components": [
            {
              "internalType": "string",
              "name": "name",
              "type": "string"
            },
            {
              "internalType": "address",
              "name": "creator",
              "type": "address"
            },
            {
              "internalType": "address",
              "name": "comptroller",
              "type": "address"
            },
            {
              "internalType": "uint256",
              "name": "blockPosted",
              "type": "uint256"
            },
            {
              "internalType": "uint256",
              "name": "timestampPosted",
              "type": "uint256"
            },
            {
              "internalType": "string",
              "name": "category",
              "type": "string"
            },
            {
              "internalType": "string",
              "name": "logoURL",
              "type": "string"
            },
            {
              "internalType": "string",
              "name": "description",
              "type": "string"
            },
            {
              "internalType": "address",
              "name": "priceOracle",
              "type": "address"
            },
            {
              "internalType": "uint256",
              "name": "closeFactor",
              "type": "uint256"
            },
            {
              "internalType": "uint256",
              "name": "liquidationIncentive",
              "type": "uint256"
            },
            {
              "internalType": "uint256",
              "name": "minLiquidatableCollateral",
              "type": "uint256"
            },
            {
              "components": [
                {
                  "internalType": "address",
                  "name": "leToken",
                  "type": "address"
                },
                {
                  "internalType": "uint256",
                  "name": "exchangeRateCurrent",
                  "type": "uint256"
                },
                {
                  "internalType": "uint256",
                  "name": "supplyRatePerBlock",
                  "type": "uint256"
                },
                {
                  "internalType": "uint256",
                  "name": "borrowRatePerBlock",
                  "type": "uint256"
                },
                {
                  "internalType": "uint256",
                  "name": "reserveFactorMantissa",
                  "type": "uint256"
                },
                {
                  "internalType": "uint256",
                  "name": "supplyCaps",
                  "type": "uint256"
                },
                {
                  "internalType": "uint256",
                  "name": "borrowCaps",
                  "type": "uint256"
                },
                {
                  "internalType": "uint256",
                  "name": "totalBorrows",
                  "type": "uint256"
                },
                {
                  "internalType": "uint256",
                  "name": "totalReserves",
                  "type": "uint256"
                },
                {
                  "internalType": "uint256",
                  "name": "totalSupply",
                  "type": "uint256"
                },
                {
                  "internalType": "uint256",
                  "name": "totalCash",
                  "type": "uint256"
                },
                {
                  "internalType": "bool",
                  "name": "isListed",
                  "type": "bool"
                },
                {
                  "internalType": "uint256",
                  "name": "collateralFactorMantissa",
                  "type": "uint256"
                },
                {
                  "internalType": "address",
                  "name": "underlyingAssetAddress",
                  "type": "address"
                },
                {
                  "internalType": "uint256",
                  "name": "leTokenDecimals",
                  "type": "uint256"
                },
                {
                  "internalType": "uint256",
                  "name": "underlyingDecimals",
                  "type": "uint256"
                },
                {
                  "internalType": "uint256",
                  "name": "pausedActions",
                  "type": "uint256"
                }
              ],
              "internalType": "struct PoolLens.LeTokenMetadata[]",
              "name": "leTokens",
              "type": "tuple[]"
            }
          ],
          "internalType": "struct PoolLens.PoolData",
          "name": "",
          "type": "tuple"
        }
      ],
      "stateMutability": "view",
      "type": "function"
    },
    {
      "inputs": [
        {
          "internalType": "address",
          "name": "poolRegistryAddress",
          "type": "address"
        },
        {
          "internalType": "address",
          "name": "asset",
          "type": "address"
        }
      ],
      "name": "getPoolsSupportedByAsset",
      "outputs": [
        {
          "internalType": "address[]",
          "name": "",
          "type": "address[]"
        }
      ],
      "stateMutability": "view",
      "type": "function"
    },
    {
      "inputs": [
        {
          "internalType": "contract LeToken",
          "name": "leToken",
          "type": "address"
        },
        {
          "internalType": "address",
          "name": "account",
          "type": "address"
        }
      ],
      "name": "leTokenBalances",
      "outputs": [
        {
          "components": [
            {
              "internalType": "address",
              "name": "leToken",
              "type": "address"
            },
            {
              "internalType": "uint256",
              "name": "balanceOf",
              "type": "uint256"
            },
            {
              "internalType": "uint256",
              "name": "borrowBalanceCurrent",
              "type": "uint256"
            },
            {
              "internalType": "uint256",
              "name": "balanceOfUnderlying",
              "type": "uint256"
            },
            {
              "internalType": "uint256",
              "name": "tokenBalance",
              "type": "uint256"
            },
            {
              "internalType": "uint256",
              "name": "tokenAllowance",
              "type": "uint256"
            }
          ],
          "internalType": "struct PoolLens.LeTokenBalances",
          "name": "",
          "type": "tuple"
        }
      ],
      "stateMutability": "nonpayable",
      "type": "function"
    },
    {
      "inputs": [
        {
          "internalType": "contract LeToken[]",
          "name": "leTokens",
          "type": "address[]"
        },
        {
          "internalType": "address",
          "name": "account",
          "type": "address"
        }
      ],
      "name": "leTokenBalancesAll",
      "outputs": [
        {
          "components": [
            {
              "internalType": "address",
              "name": "leToken",
              "type": "address"
            },
            {
              "internalType": "uint256",
              "name": "balanceOf",
              "type": "uint256"
            },
            {
              "internalType": "uint256",
              "name": "borrowBalanceCurrent",
              "type": "uint256"
            },
            {
              "internalType": "uint256",
              "name": "balanceOfUnderlying",
              "type": "uint256"
            },
            {
              "internalType": "uint256",
              "name": "tokenBalance",
              "type": "uint256"
            },
            {
              "internalType": "uint256",
              "name": "tokenAllowance",
              "type": "uint256"
            }
          ],
          "internalType": "struct PoolLens.LeTokenBalances[]",
          "name": "",
          "type": "tuple[]"
        }
      ],
      "stateMutability": "nonpayable",
      "type": "function"
    },
    {
      "inputs": [
        {
          "internalType": "contract LeToken",
          "name": "leToken",
          "type": "address"
        }
      ],
      "name": "leTokenMetadata",
      "outputs": [
        {
          "components": [
            {
              "internalType": "address",
              "name": "leToken",
              "type": "address"
            },
            {
              "internalType": "uint256",
              "name": "exchangeRateCurrent",
              "type": "uint256"
            },
            {
              "internalType": "uint256",
              "name": "supplyRatePerBlock",
              "type": "uint256"
            },
            {
              "internalType": "uint256",
              "name": "borrowRatePerBlock",
              "type": "uint256"
            },
            {
              "internalType": "uint256",
              "name": "reserveFactorMantissa",
              "type": "uint256"
            },
            {
              "internalType": "uint256",
              "name": "supplyCaps",
              "type": "uint256"
            },
            {
              "internalType": "uint256",
              "name": "borrowCaps",
              "type": "uint256"
            },
            {
              "internalType": "uint256",
              "name": "totalBorrows",
              "type": "uint256"
            },
            {
              "internalType": "uint256",
              "name": "totalReserves",
              "type": "uint256"
            },
            {
              "internalType": "uint256",
              "name": "totalSupply",
              "type": "uint256"
            },
            {
              "internalType": "uint256",
              "name": "totalCash",
              "type": "uint256"
            },
            {
              "internalType": "bool",
              "name": "isListed",
              "type": "bool"
            },
            {
              "internalType": "uint256",
              "name": "collateralFactorMantissa",
              "type": "uint256"
            },
            {
              "internalType": "address",
              "name": "underlyingAssetAddress",
              "type": "address"
            },
            {
              "internalType": "uint256",
              "name": "leTokenDecimals",
              "type": "uint256"
            },
            {
              "internalType": "uint256",
              "name": "underlyingDecimals",
              "type": "uint256"
            },
            {
              "internalType": "uint256",
              "name": "pausedActions",
              "type": "uint256"
            }
          ],
          "internalType": "struct PoolLens.LeTokenMetadata",
          "name": "",
          "type": "tuple"
        }
      ],
      "stateMutability": "view",
      "type": "function"
    },
    {
      "inputs": [
        {
          "internalType": "contract LeToken[]",
          "name": "leTokens",
          "type": "address[]"
        }
      ],
      "name": "leTokenMetadataAll",
      "outputs": [
        {
          "components": [
            {
              "internalType": "address",
              "name": "leToken",
              "type": "address"
            },
            {
              "internalType": "uint256",
              "name": "exchangeRateCurrent",
              "type": "uint256"
            },
            {
              "internalType": "uint256",
              "name": "supplyRatePerBlock",
              "type": "uint256"
            },
            {
              "internalType": "uint256",
              "name": "borrowRatePerBlock",
              "type": "uint256"
            },
            {
              "internalType": "uint256",
              "name": "reserveFactorMantissa",
              "type": "uint256"
            },
            {
              "internalType": "uint256",
              "name": "supplyCaps",
              "type": "uint256"
            },
            {
              "internalType": "uint256",
              "name": "borrowCaps",
              "type": "uint256"
            },
            {
              "internalType": "uint256",
              "name": "totalBorrows",
              "type": "uint256"
            },
            {
              "internalType": "uint256",
              "name": "totalReserves",
              "type": "uint256"
            },
            {
              "internalType": "uint256",
              "name": "totalSupply",
              "type": "uint256"
            },
            {
              "internalType": "uint256",
              "name": "totalCash",
              "type": "uint256"
            },
            {
              "internalType": "bool",
              "name": "isListed",
              "type": "bool"
            },
            {
              "internalType": "uint256",
              "name": "collateralFactorMantissa",
              "type": "uint256"
            },
            {
              "internalType": "address",
              "name": "underlyingAssetAddress",
              "type": "address"
            },
            {
              "internalType": "uint256",
              "name": "leTokenDecimals",
              "type": "uint256"
            },
            {
              "internalType": "uint256",
              "name": "underlyingDecimals",
              "type": "uint256"
            },
            {
              "internalType": "uint256",
              "name": "pausedActions",
              "type": "uint256"
            }
          ],
          "internalType": "struct PoolLens.LeTokenMetadata[]",
          "name": "",
          "type": "tuple[]"
        }
      ],
      "stateMutability": "view",
      "type": "function"
    },
    {
      "inputs": [
        {
          "internalType": "contract LeToken",
          "name": "leToken",
          "type": "address"
        }
      ],
      "name": "leTokenUnderlyingPrice",
      "outputs": [
        {
          "components": [
            {
              "internalType": "address",
              "name": "leToken",
              "type": "address"
            },
            {
              "internalType": "uint256",
              "name": "underlyingPrice",
              "type": "uint256"
            }
          ],
          "internalType": "struct PoolLens.LeTokenUnderlyingPrice",
          "name": "",
          "type": "tuple"
        }
      ],
      "stateMutability": "view",
      "type": "function"
    },
    {
      "inputs": [
        {
          "internalType": "contract LeToken[]",
          "name": "leTokens",
          "type": "address[]"
        }
      ],
      "name": "leTokenUnderlyingPriceAll",
      "outputs": [
        {
          "components": [
            {
              "internalType": "address",
              "name": "leToken",
              "type": "address"
            },
            {
              "internalType": "uint256",
              "name": "underlyingPrice",
              "type": "uint256"
            }
          ],
          "internalType": "struct PoolLens.LeTokenUnderlyingPrice[]",
          "name": "",
          "type": "tuple[]"
        }
      ],
      "stateMutability": "view",
      "type": "function"
    }
  ],
  "transactionHash": "0x1c98f72247797727bf61f1b13d20c5e9b2721707d25d6f7ea3cdd6492a8874e5",
  "args": [],
  "numDeployments": 1,
  "solcInputHash": "47cdc25dab8d75d0890638c61746a4a2",
  "bytecode": "0x608060405234801561001057600080fd5b50613db9806100206000396000f3fe608060405234801561001057600080fd5b50600436106100cf5760003560e01c80637a27db571161008c578063cfa5ff6911610066578063cfa5ff69146101fd578063d77ebf9614610210578063dc7634c314610230578063ffa71f6d1461025057600080fd5b80637a27db571461019d5780637e9ab2cb146101bd578063ad0d9822146101dd57600080fd5b8063345954dc146100d457806334c16ef9146100fd5780633e3e399c1461011d5780634399f7791461013d57806347d86a811461015d57806355e3a7d91461017d575b600080fd5b6100e76100e2366004612d1d565b61027b565b6040516100f49190612fbb565b60405180910390f35b61011061010b366004613068565b6103b7565b6040516100f491906130a9565b61013061012b366004612d1d565b61048a565b6040516100f49190613109565b61015061014b366004612d1d565b610805565b6040516100f49190613193565b61017061016b3660046131a2565b610f53565b6040516100f491906131db565b61019061018b3660046131a2565b610fda565b6040516100f4919061322e565b6101b06101ab3660046131a2565b6112c1565b6040516100f4919061323c565b6101d06101cb366004612d1d565b6115d7565b6040516100f49190613316565b6101f06101eb3660046133e9565b611741565b6040516100f49190613487565b61017061020b3660046134fd565b6117ff565b61022361021e3660046131a2565b611b32565b6040516100f491906135ef565b61024361023e366004613630565b611ba5565b6040516100f49190613686565b61026361025e3660046136c8565b611c67565b6040516001600160a01b0390911681526020016100f4565b606060008290506000816001600160a01b031663d88ff1f46040518163ffffffff1660e01b8152600401600060405180830381865afa1580156102c2573d6000803e3d6000fd5b505050506040513d6000823e601f3d908101601f191682016040526102ea91908101906137d0565b80519091506000816001600160401b0381111561030957610309613336565b60405190808252806020026020018201604052801561034257816020015b61032f612b9b565b8152602001906001900390816103275790505b50905060005b828110156103ad57600084828151811061036457610364613880565b60200260200101519050600061037a89836117ff565b90508084848151811061038f5761038f613880565b60200260200101819052505050806103a6906138ac565b9050610348565b5095945050505050565b6060816000816001600160401b038111156103d4576103d4613336565b60405190808252806020026020018201604052801561041957816020015b60408051808201909152600080825260208201528152602001906001900390816103f25790505b50905060005b8281101561047f5761045186868381811061043c5761043c613880565b90506020020160208101906101cb9190612d1d565b82828151811061046357610463613880565b602002602001018190525080610478906138ac565b905061041f565b509150505b92915050565b604080516060808201835260008083526020830152918101919091526000808390506000816001600160a01b031663b0772d0b6040518163ffffffff1660e01b8152600401600060405180830381865afa1580156104ec573d6000803e3d6000fd5b505050506040513d6000823e601f3d908101601f1916820160405261051491908101906138c5565b90506000826001600160a01b0316637dc0d1d06040518163ffffffff1660e01b8152600401602060405180830381865afa158015610556573d6000803e3d6000fd5b505050506040513d601f19601f8201168201806040525081019061057a9190613953565b9050600082516001600160401b0381111561059757610597613336565b6040519080825280602002602001820160405280156105dc57816020015b60408051808201909152600080825260208201528152602001906001900390816105b55790505b50905061060c604051806060016040528060006001600160a01b0316815260200160008152602001606081525090565b6001600160a01b03881681526040810182905260005b84518110156107f157604080518082019091526000808252602082015285828151811061065157610651613880565b602002602001015181600001906001600160a01b031690816001600160a01b031681525050670de0b6b3a7640000856001600160a01b031663fc57d4df8885815181106106a0576106a0613880565b60200260200101516040518263ffffffff1660e01b81526004016106d391906001600160a01b0391909116815260200190565b602060405180830381865afa1580156106f0573d6000803e3d6000fd5b505050506040513d601f19601f820116820180604052508101906107149190613970565b87848151811061072657610726613880565b60200260200101516001600160a01b031663bbcac5576040518163ffffffff1660e01b8152600401602060405180830381865afa15801561076b573d6000803e3d6000fd5b505050506040513d601f19601f8201168201806040525081019061078f9190613970565b6107999190613989565b6107a391906139a8565b602082015260408301518051829190849081106107c2576107c2613880565b60200260200101819052508060200151886107dd91906139ca565b975050806107ea906138ac565b9050610622565b506020810195909552509295945050505050565b61080d612c1e565b6000826001600160a01b031663182df0f56040518163ffffffff1660e01b8152600401602060405180830381865afa15801561084d573d6000803e3d6000fd5b505050506040513d601f19601f820116820180604052508101906108719190613970565b90506000836001600160a01b0316635fe3b5676040518163ffffffff1660e01b8152600401602060405180830381865afa1580156108b3573d6000803e3d6000fd5b505050506040513d601f19601f820116820180604052508101906108d79190613953565b604051638e8f294b60e01b81526001600160a01b03868116600483015291925082916000918291841690638e8f294b906024016040805180830381865afa158015610926573d6000803e3d6000fd5b505050506040513d601f19601f8201168201806040525081019061094a91906139f2565b915091506000876001600160a01b0316636f307dc36040518163ffffffff1660e01b8152600401602060405180830381865afa15801561098e573d6000803e3d6000fd5b505050506040513d601f19601f820116820180604052508101906109b29190613953565b90506000816001600160a01b031663313ce5676040518163ffffffff1660e01b8152600401602060405180830381865afa1580156109f4573d6000803e3d6000fd5b505050506040513d601f19601f82011682018060405250810190610a189190613a1e565b60ff1690506000805b600860ff821611610ade576000886001600160a01b031663e85a29608d8460ff166008811115610a5357610a53613a41565b6040518363ffffffff1660e01b8152600401610a70929190613a57565b602060405180830381865afa158015610a8d573d6000803e3d6000fd5b505050506040513d601f19601f82011682018060405250810190610ab19190613a92565b610abc576000610abf565b60015b60ff9081169083161b929092179150610ad781613aad565b9050610a21565b506040518061022001604052808b6001600160a01b031681526020018981526020018b6001600160a01b031663ae9d70b06040518163ffffffff1660e01b8152600401602060405180830381865afa158015610b3e573d6000803e3d6000fd5b505050506040513d601f19601f82011682018060405250810190610b629190613970565b81526020018b6001600160a01b031663f8f9da286040518163ffffffff1660e01b8152600401602060405180830381865afa158015610ba5573d6000803e3d6000fd5b505050506040513d601f19601f82011682018060405250810190610bc99190613970565b81526020018b6001600160a01b031663173b99046040518163ffffffff1660e01b8152600401602060405180830381865afa158015610c0c573d6000803e3d6000fd5b505050506040513d601f19601f82011682018060405250810190610c309190613970565b81526040516302c3bcbb60e01b81526001600160a01b038d811660048301526020909201918916906302c3bcbb90602401602060405180830381865afa158015610c7e573d6000803e3d6000fd5b505050506040513d601f19601f82011682018060405250810190610ca29190613970565b815260405163252c221960e11b81526001600160a01b038d81166004830152602090920191891690634a58443290602401602060405180830381865afa158015610cf0573d6000803e3d6000fd5b505050506040513d601f19601f82011682018060405250810190610d149190613970565b81526020018b6001600160a01b03166347bd37186040518163ffffffff1660e01b8152600401602060405180830381865afa158015610d57573d6000803e3d6000fd5b505050506040513d601f19601f82011682018060405250810190610d7b9190613970565b81526020018b6001600160a01b0316638f840ddd6040518163ffffffff1660e01b8152600401602060405180830381865afa158015610dbe573d6000803e3d6000fd5b505050506040513d601f19601f82011682018060405250810190610de29190613970565b81526020018b6001600160a01b03166318160ddd6040518163ffffffff1660e01b8152600401602060405180830381865afa158015610e25573d6000803e3d6000fd5b505050506040513d601f19601f82011682018060405250810190610e499190613970565b81526020018b6001600160a01b0316633b1d21a26040518163ffffffff1660e01b8152600401602060405180830381865afa158015610e8c573d6000803e3d6000fd5b505050506040513d601f19601f82011682018060405250810190610eb09190613970565b81526020018615158152602001858152602001846001600160a01b031681526020018b6001600160a01b031663313ce5676040518163ffffffff1660e01b8152600401602060405180830381865afa158015610f10573d6000803e3d6000fd5b505050506040513d601f19601f82011682018060405250810190610f349190613a1e565b60ff168152602081019390935260409092015298975050505050505050565b610f5b612b9b565b604051637aee632d60e01b81526001600160a01b0383811660048301528491610fd291839190821690637aee632d90602401600060405180830381865afa158015610faa573d6000803e3d6000fd5b505050506040513d6000823e601f3d908101601f1916820160405261020b9190810190613acc565b949350505050565b610fe2612cb6565b6040516370a0823160e01b81526001600160a01b038381166004830152600091908516906370a0823190602401602060405180830381865afa15801561102c573d6000803e3d6000fd5b505050506040513d601f19601f820116820180604052508101906110509190613970565b6040516305eff7ef60e21b81526001600160a01b0385811660048301529192506000918616906317bfdfbc906024016020604051808303816000875af115801561109e573d6000803e3d6000fd5b505050506040513d601f19601f820116820180604052508101906110c29190613970565b604051633af9e66960e01b81526001600160a01b038681166004830152919250600091871690633af9e669906024016020604051808303816000875af1158015611110573d6000803e3d6000fd5b505050506040513d601f19601f820116820180604052508101906111349190613970565b90506000806000886001600160a01b0316636f307dc36040518163ffffffff1660e01b8152600401602060405180830381865afa158015611179573d6000803e3d6000fd5b505050506040513d601f19601f8201168201806040525081019061119d9190613953565b6040516370a0823160e01b81526001600160a01b038a81166004830152919250908216906370a0823190602401602060405180830381865afa1580156111e7573d6000803e3d6000fd5b505050506040513d601f19601f8201168201806040525081019061120b9190613970565b604051636eb1769f60e11b81526001600160a01b038a811660048301528b811660248301529194509082169063dd62ed3e90604401602060405180830381865afa15801561125d573d6000803e3d6000fd5b505050506040513d601f19601f820116820180604052508101906112819190613970565b6040805160c0810182526001600160a01b038c168152602081019890985287019590955250506060840191909152608083015260a0820152905092915050565b60606000826001600160a01b031663b0772d0b6040518163ffffffff1660e01b8152600401600060405180830381865afa158015611303573d6000803e3d6000fd5b505050506040513d6000823e601f3d908101601f1916820160405261132b91908101906138c5565b90506000836001600160a01b03166361252fd16040518163ffffffff1660e01b8152600401600060405180830381865afa15801561136d573d6000803e3d6000fd5b505050506040513d6000823e601f3d908101601f191682016040526113959190810190613b00565b9050600081516001600160401b038111156113b2576113b2613336565b60405190808252806020026020018201604052801561140357816020015b60408051608081018252600080825260208083018290529282015260608082015282526000199092019101816113d05790505b50905060005b82518110156103ad57604080516080810182526000808252602082018190529181019190915260608082015283828151811061144757611447613880565b60209081029190910101516001600160a01b03168152835184908390811061147157611471613880565b60200260200101516001600160a01b031663f7c618c16040518163ffffffff1660e01b8152600401602060405180830381865afa1580156114b6573d6000803e3d6000fd5b505050506040513d601f19601f820116820180604052508101906114da9190613953565b6001600160a01b0316602082015283518490839081106114fc576114fc613880565b6020908102919091010151604051631627ee8960e01b81526001600160a01b038a8116600483015290911690631627ee8990602401602060405180830381865afa15801561154e573d6000803e3d6000fd5b505050506040513d601f19601f820116820180604052508101906115729190613970565b81604001818152505061159f888686858151811061159257611592613880565b6020026020010151611ce7565b8160600181905250808383815181106115ba576115ba613880565b602002602001018190525050806115d0906138ac565b9050611409565b60408051808201909152600080825260208201526000826001600160a01b0316635fe3b5676040518163ffffffff1660e01b8152600401602060405180830381865afa15801561162b573d6000803e3d6000fd5b505050506040513d601f19601f8201168201806040525081019061164f9190613953565b90506000816001600160a01b0316637dc0d1d06040518163ffffffff1660e01b8152600401602060405180830381865afa158015611691573d6000803e3d6000fd5b505050506040513d601f19601f820116820180604052508101906116b59190613953565b6040805180820182526001600160a01b03808816808352925163fc57d4df60e01b815260048101939093529293509160208301919084169063fc57d4df90602401602060405180830381865afa158015611713573d6000803e3d6000fd5b505050506040513d601f19601f820116820180604052508101906117379190613970565b9052949350505050565b80516060906000816001600160401b0381111561176057611760613336565b60405190808252806020026020018201604052801561179957816020015b611786612c1e565b81526020019060019003908161177e5790505b50905060005b828110156117f7576117c98582815181106117bc576117bc613880565b6020026020010151610805565b8282815181106117db576117db613880565b6020026020010181905250806117f0906138ac565b905061179f565b509392505050565b611807612b9b565b6000826040015190506000816001600160a01b031663b0772d0b6040518163ffffffff1660e01b8152600401600060405180830381865afa158015611850573d6000803e3d6000fd5b505050506040513d6000823e601f3d908101601f1916820160405261187891908101906138c5565b9050600061188582611741565b604086810151905163e2bb29f360e01b81526001600160a01b039182166004820152919250879160009183169063e2bb29f390602401600060405180830381865afa1580156118d8573d6000803e3d6000fd5b505050506040513d6000823e601f3d908101601f191682016040526119009190810190613b8e565b90506000876040015190506000604051806101a001604052808a6000015181526020018a602001516001600160a01b031681526020018a604001516001600160a01b031681526020018a6060015181526020018a608001518152602001846000015181526020018460200151815260200184604001518152602001836001600160a01b0316637dc0d1d06040518163ffffffff1660e01b8152600401602060405180830381865afa1580156119b9573d6000803e3d6000fd5b505050506040513d601f19601f820116820180604052508101906119dd9190613953565b6001600160a01b03168152602001836001600160a01b031663e87554466040518163ffffffff1660e01b8152600401602060405180830381865afa158015611a29573d6000803e3d6000fd5b505050506040513d601f19601f82011682018060405250810190611a4d9190613970565b8152602001836001600160a01b0316634ada90af6040518163ffffffff1660e01b8152600401602060405180830381865afa158015611a90573d6000803e3d6000fd5b505050506040513d601f19601f82011682018060405250810190611ab49190613970565b8152602001836001600160a01b031663db5c65de6040518163ffffffff1660e01b8152600401602060405180830381865afa158015611af7573d6000803e3d6000fd5b505050506040513d601f19601f82011682018060405250810190611b1b9190613970565b815260200195909552509298975050505050505050565b604051631e6db74760e31b81526001600160a01b038281166004830152606091849182169063f36dba3890602401600060405180830381865afa158015611b7d573d6000803e3d6000fd5b505050506040513d6000823e601f3d908101601f19168201604052610fd29190810190613c42565b6060826000816001600160401b03811115611bc257611bc2613336565b604051908082528060200260200182016040528015611bfb57816020015b611be8612cb6565b815260200190600190039081611be05790505b50905060005b828110156103ad57611c39878783818110611c1e57611c1e613880565b9050602002016020810190611c339190612d1d565b86610fda565b828281518110611c4b57611c4b613880565b602002602001018190525080611c60906138ac565b9050611c01565b6040516326b7178560e11b81526001600160a01b03838116600483015282811660248301526000918591821690634d6e2f0a90604401602060405180830381865afa158015611cba573d6000803e3d6000fd5b505050506040513d601f19601f82011682018060405250810190611cde9190613953565b95945050505050565b6060600083516001600160401b03811115611d0457611d04613336565b604051908082528060200260200182016040528015611d4957816020015b6040805180820190915260008082526020820152815260200190600190039081611d225790505b50905060005b84518110156120b8576040805160608101825260008082526020820181905291810191909152846001600160a01b0316632c427b57878481518110611d9657611d96613880565b60200260200101516040518263ffffffff1660e01b8152600401611dc991906001600160a01b0391909116815260200190565b606060405180830381865afa158015611de6573d6000803e3d6000fd5b505050506040513d601f19601f82011682018060405250810190611e0a9190613cfb565b63ffffffff90811660408501521660208301526001600160e01b03168152611e4b604080516060810182526000808252602082018190529181019190915290565b856001600160a01b03166392a18235888581518110611e6c57611e6c613880565b60200260200101516040518263ffffffff1660e01b8152600401611e9f91906001600160a01b0391909116815260200190565b606060405180830381865afa158015611ebc573d6000803e3d6000fd5b505050506040513d601f19601f82011682018060405250810190611ee09190613cfb565b63ffffffff90811660408086019190915291166020808501919091526001600160e01b0390921683528051918201905287516000919081908a9087908110611f2a57611f2a613880565b60200260200101516001600160a01b031663aa5af0fd6040518163ffffffff1660e01b8152600401602060405180830381865afa158015611f6f573d6000803e3d6000fd5b505050506040513d601f19601f82011682018060405250810190611f939190613970565b8152509050611fbd888581518110611fad57611fad613880565b60200260200101518885846120c1565b611fe1888581518110611fd257611fd2613880565b60200260200101518884612349565b6000612009898681518110611ff857611ff8613880565b6020026020010151898c87866125c7565b905060006120328a878151811061202257612022613880565b60200260200101518a8d876127f7565b60408051808201909152600080825260208201529091508a878151811061205b5761205b613880565b60209081029190910101516001600160a01b0316815261207b82846139ca565b60208201528751819089908990811061209657612096613880565b6020026020010181905250505050505050806120b1906138ac565b9050611d4f565b50949350505050565b604051637c05a7c560e01b81526001600160a01b03858116600483015260009190851690637c05a7c590602401602060405180830381865afa15801561210b573d6000803e3d6000fd5b505050506040513d601f19601f8201168201806040525081019061212f9190613970565b6040840151909150439063ffffffff16158015906121565750836040015163ffffffff1681115b156121685750604083015163ffffffff165b600061217e82866020015163ffffffff16612a1b565b90506000811180156121905750600083115b156122f6576000612202886001600160a01b03166347bd37186040518163ffffffff1660e01b8152600401602060405180830381865afa1580156121d8573d6000803e3d6000fd5b505050506040513d601f19601f820116820180604052508101906121fc9190613970565b86612a2e565b905060006122108386612a4c565b90506000808311612230576040518060200160405280600081525061223a565b61223a8284612a58565b9050600061226360405180602001604052808b600001516001600160e01b031681525083612a9d565b905061229e8160000151604051806040016040528060138152602001726e657720696e646578206f766572666c6f777360681b815250612ac9565b6001600160e01b03168952604080518082019091526016815275626c6f636b206e756d626572206f766572666c6f777360501b60208201526122e1908790612b05565b63ffffffff1660208a01525061234092505050565b8015612340576123348260405180604001604052806016815260200175626c6f636b206e756d626572206f766572666c6f777360501b815250612b05565b63ffffffff1660208601525b50505050505050565b604051631d31307360e21b81526001600160a01b038481166004830152600091908416906374c4c1cc90602401602060405180830381865afa158015612393573d6000803e3d6000fd5b505050506040513d601f19601f820116820180604052508101906123b79190613970565b6040830151909150439063ffffffff16158015906123de5750826040015163ffffffff1681115b156123f05750604082015163ffffffff165b600061240682856020015163ffffffff16612a1b565b90506000811180156124185750600083115b15612575576000866001600160a01b03166318160ddd6040518163ffffffff1660e01b8152600401602060405180830381865afa15801561245d573d6000803e3d6000fd5b505050506040513d601f19601f820116820180604052508101906124819190613970565b9050600061248f8386612a4c565b905060008083116124af57604051806020016040528060008152506124b9565b6124b98284612a58565b905060006124e260405180602001604052808a600001516001600160e01b031681525083612a9d565b905061251d8160000151604051806040016040528060138152602001726e657720696e646578206f766572666c6f777360681b815250612ac9565b6001600160e01b03168852604080518082019091526016815275626c6f636b206e756d626572206f766572666c6f777360501b6020820152612560908790612b05565b63ffffffff166020890152506125bf92505050565b80156125bf576125b38260405180604001604052806016815260200175626c6f636b206e756d626572206f766572666c6f777360501b815250612b05565b63ffffffff1660208501525b505050505050565b604080516020808201835284516001600160e01b031682528251908101928390526336fe846560e11b9092526001600160a01b0387811660248401528581166044840152600092839181908916636dfd08ca60648301602060405180830381865afa15801561263a573d6000803e3d6000fd5b505050506040513d601f19601f8201168201806040525081019061265e9190613970565b905280519091501580156126e05750866001600160a01b031663160c3a036040518163ffffffff1660e01b8152600401602060405180830381865afa1580156126ab573d6000803e3d6000fd5b505050506040513d601f19601f820116820180604052508101906126cf9190613d3e565b6001600160e01b0316826000015110155b1561275357866001600160a01b031663160c3a036040518163ffffffff1660e01b8152600401602060405180830381865afa158015612723573d6000803e3d6000fd5b505050506040513d601f19601f820116820180604052508101906127479190613d3e565b6001600160e01b031681525b600061275f8383612b2d565b6040516395dd919360e01b81526001600160a01b0389811660048301529192506000916127da91908c16906395dd919390602401602060405180830381865afa1580156127b0573d6000803e3d6000fd5b505050506040513d601f19601f820116820180604052508101906127d49190613970565b87612a2e565b905060006127e88284612b59565b9b9a5050505050505050505050565b604080516020808201835283516001600160e01b0316825282519081019283905263552c097160e01b9092526001600160a01b038681166024840152848116604484015260009283918190881663552c097160648301602060405180830381865afa15801561286a573d6000803e3d6000fd5b505050506040513d601f19601f8201168201806040525081019061288e9190613970565b905280519091501580156129105750856001600160a01b031663160c3a036040518163ffffffff1660e01b8152600401602060405180830381865afa1580156128db573d6000803e3d6000fd5b505050506040513d601f19601f820116820180604052508101906128ff9190613d3e565b6001600160e01b0316826000015110155b1561298357856001600160a01b031663160c3a036040518163ffffffff1660e01b8152600401602060405180830381865afa158015612953573d6000803e3d6000fd5b505050506040513d601f19601f820116820180604052508101906129779190613d3e565b6001600160e01b031681525b600061298f8383612b2d565b6040516370a0823160e01b81526001600160a01b0388811660048301529192506000918a16906370a0823190602401602060405180830381865afa1580156129db573d6000803e3d6000fd5b505050506040513d601f19601f820116820180604052508101906129ff9190613970565b90506000612a0d8284612b59565b9a9950505050505050505050565b6000612a278284613d59565b9392505050565b6000612a27612a4584670de0b6b3a7640000612a4c565b8351612b83565b6000612a278284613989565b6040805160208101909152600081526040518060200160405280612a94612a8e866ec097ce7bc90715b34b9f1000000000612a4c565b85612b83565b90529392505050565b6040805160208101909152600081526040518060200160405280612a9485600001518560000151612b8f565b6000816001600160e01b03841115612afd5760405162461bcd60e51b8152600401612af49190613d70565b60405180910390fd5b509192915050565b60008163ffffffff841115612afd5760405162461bcd60e51b8152600401612af49190613d70565b6040805160208101909152600081526040518060200160405280612a9485600001518560000151612a1b565b60006ec097ce7bc90715b34b9f1000000000612b79848460000151612a4c565b612a2791906139a8565b6000612a2782846139a8565b6000612a2782846139ca565b604051806101a001604052806060815260200160006001600160a01b0316815260200160006001600160a01b03168152602001600081526020016000815260200160608152602001606081526020016060815260200160006001600160a01b03168152602001600081526020016000815260200160008152602001606081525090565b60405180610220016040528060006001600160a01b03168152602001600081526020016000815260200160008152602001600081526020016000815260200160008152602001600081526020016000815260200160008152602001600081526020016000151581526020016000815260200160006001600160a01b031681526020016000815260200160008152602001600081525090565b6040518060c0016040528060006001600160a01b0316815260200160008152602001600081526020016000815260200160008152602001600081525090565b6001600160a01b0381168114612d0a57600080fd5b50565b8035612d1881612cf5565b919050565b600060208284031215612d2f57600080fd5b8135612a2781612cf5565b60005b83811015612d55578181015183820152602001612d3d565b83811115612d64576000848401525b50505050565b60008151808452612d82816020860160208601612d3a565b601f01601f19169290920160200192915050565b80516001600160a01b031682526020810151602083015260408101516040830152606081015160608301526080810151608083015260a081015160a083015260c081015160c083015260e081015160e083015261010080820151818401525061012080820151818401525061014080820151818401525061016080820151612e218285018215159052565b505061018081810151908301526101a0808201516001600160a01b0316908301526101c080820151908301526101e0808201519083015261020090810151910152565b600081518084526020808501945080840160005b83811015612e9f57612e8b878351612d96565b610220969096019590820190600101612e78565b509495945050505050565b60006101a08251818552612ec082860182612d6a565b9150506020830151612edd60208601826001600160a01b03169052565b506040830151612ef860408601826001600160a01b03169052565b50606083015160608501526080830151608085015260a083015184820360a0860152612f248282612d6a565b91505060c083015184820360c0860152612f3e8282612d6a565b91505060e083015184820360e0860152612f588282612d6a565b91505061010080840151612f76828701826001600160a01b03169052565b50506101208381015190850152610140808401519085015261016080840151908501526101808084015185830382870152612fb18382612e64565b9695505050505050565b6000602080830181845280855180835260408601915060408160051b870101925083870160005b8281101561301057603f19888603018452612ffe858351612eaa565b94509285019290850190600101612fe2565b5092979650505050505050565b60008083601f84011261302f57600080fd5b5081356001600160401b0381111561304657600080fd5b6020830191508360208260051b850101111561306157600080fd5b9250929050565b6000806020838503121561307b57600080fd5b82356001600160401b0381111561309157600080fd5b61309d8582860161301d565b90969095509350505050565b602080825282518282018190526000919060409081850190868401855b828110156130fc576130ec84835180516001600160a01b03168252602090810151910152565b92840192908501906001016130c6565b5091979650505050505050565b602080825282516001600160a01b03168282015282810151604080840191909152808401516060808501528051608085018190526000939291830191849160a08701905b808410156131875761317382865180516001600160a01b03168252602090810151910152565b93850193600193909301929082019061314d565b50979650505050505050565b61022081016104848284612d96565b600080604083850312156131b557600080fd5b82356131c081612cf5565b915060208301356131d081612cf5565b809150509250929050565b602081526000612a276020830184612eaa565b80516001600160a01b031682526020808201519083015260408082015190830152606080820151908301526080808201519083015260a090810151910152565b60c0810161048482846131ee565b60006020808301818452808551808352604092508286019150828160051b8701018488016000805b8481101561330757898403603f19018652825180516001600160a01b03908116865289820151168986015287810151888601526060908101516080918601829052805191860182905289019060a086019084905b808210156132f2576132de83855180516001600160a01b03168252602090810151910152565b928b0192918a0191600191909101906132b8565b50509689019694505091870191600101613264565b50919998505050505050505050565b81516001600160a01b031681526020808301519082015260408101610484565b634e487b7160e01b600052604160045260246000fd5b60405160a081016001600160401b038111828210171561336e5761336e613336565b60405290565b604051606081016001600160401b038111828210171561336e5761336e613336565b604051601f8201601f191681016001600160401b03811182821017156133be576133be613336565b604052919050565b60006001600160401b038211156133df576133df613336565b5060051b60200190565b600060208083850312156133fc57600080fd5b82356001600160401b0381111561341257600080fd5b8301601f8101851361342357600080fd5b8035613436613431826133c6565b613396565b81815260059190911b8201830190838101908783111561345557600080fd5b928401925b8284101561347c57833561346d81612cf5565b8252928401929084019061345a565b979650505050505050565b6020808252825182820181905260009190848201906040850190845b818110156134ca576134b6838551612d96565b9284019261022092909201916001016134a3565b50909695505050505050565b60006001600160401b038211156134ef576134ef613336565b50601f01601f191660200190565b6000806040838503121561351057600080fd5b823561351b81612cf5565b91506020838101356001600160401b038082111561353857600080fd5b9085019060a0828803121561354c57600080fd5b61355461334c565b82358281111561356357600080fd5b83019150601f8201881361357657600080fd5b8135613584613431826134d6565b818152898683860101111561359857600080fd5b8186850187830137600086838301015280835250506135b8848401612d0d565b848201526135c860408401612d0d565b60408201526060830135606082015260808301356080820152809450505050509250929050565b6020808252825182820181905260009190848201906040850190845b818110156134ca5783516001600160a01b03168352928401929184019160010161360b565b60008060006040848603121561364557600080fd5b83356001600160401b0381111561365b57600080fd5b6136678682870161301d565b909450925050602084013561367b81612cf5565b809150509250925092565b6020808252825182820181905260009190848201906040850190845b818110156134ca576136b58385516131ee565b9284019260c092909201916001016136a2565b6000806000606084860312156136dd57600080fd5b83356136e881612cf5565b925060208401356136f881612cf5565b9150604084013561367b81612cf5565b600082601f83011261371957600080fd5b8151613727613431826134d6565b81815284602083860101111561373c57600080fd5b610fd2826020830160208701612d3a565b600060a0828403121561375f57600080fd5b61376761334c565b905081516001600160401b0381111561377f57600080fd5b61378b84828501613708565b825250602082015161379c81612cf5565b602082015260408201516137af81612cf5565b80604083015250606082015160608201526080820151608082015292915050565b600060208083850312156137e357600080fd5b82516001600160401b03808211156137fa57600080fd5b818501915085601f83011261380e57600080fd5b815161381c613431826133c6565b81815260059190911b8301840190848101908883111561383b57600080fd5b8585015b83811015613873578051858111156138575760008081fd5b6138658b89838a010161374d565b84525091860191860161383f565b5098975050505050505050565b634e487b7160e01b600052603260045260246000fd5b634e487b7160e01b600052601160045260246000fd5b6000600182016138be576138be613896565b5060010190565b600060208083850312156138d857600080fd5b82516001600160401b038111156138ee57600080fd5b8301601f810185136138ff57600080fd5b805161390d613431826133c6565b81815260059190911b8201830190838101908783111561392c57600080fd5b928401925b8284101561347c57835161394481612cf5565b82529284019290840190613931565b60006020828403121561396557600080fd5b8151612a2781612cf5565b60006020828403121561398257600080fd5b5051919050565b60008160001904831182151516156139a3576139a3613896565b500290565b6000826139c557634e487b7160e01b600052601260045260246000fd5b500490565b600082198211156139dd576139dd613896565b500190565b80518015158114612d1857600080fd5b60008060408385031215613a0557600080fd5b613a0e836139e2565b9150602083015190509250929050565b600060208284031215613a3057600080fd5b815160ff81168114612a2757600080fd5b634e487b7160e01b600052602160045260246000fd5b6001600160a01b03831681526040810160098310613a8557634e487b7160e01b600052602160045260246000fd5b8260208301529392505050565b600060208284031215613aa457600080fd5b612a27826139e2565b600060ff821660ff8103613ac357613ac3613896565b60010192915050565b600060208284031215613ade57600080fd5b81516001600160401b03811115613af457600080fd5b610fd28482850161374d565b60006020808385031215613b1357600080fd5b82516001600160401b03811115613b2957600080fd5b8301601f81018513613b3a57600080fd5b8051613b48613431826133c6565b81815260059190911b82018301908381019087831115613b6757600080fd5b928401925b8284101561347c578351613b7f81612cf5565b82529284019290840190613b6c565b600060208284031215613ba057600080fd5b81516001600160401b0380821115613bb757600080fd5b9083019060608286031215613bcb57600080fd5b613bd3613374565b825182811115613be257600080fd5b613bee87828601613708565b825250602083015182811115613c0357600080fd5b613c0f87828601613708565b602083015250604083015182811115613c2757600080fd5b613c3387828601613708565b60408301525095945050505050565b60006020808385031215613c5557600080fd5b82516001600160401b03811115613c6b57600080fd5b8301601f81018513613c7c57600080fd5b8051613c8a613431826133c6565b81815260059190911b82018301908381019087831115613ca957600080fd5b928401925b8284101561347c578351613cc181612cf5565b82529284019290840190613cae565b80516001600160e01b0381168114612d1857600080fd5b805163ffffffff81168114612d1857600080fd5b600080600060608486031215613d1057600080fd5b613d1984613cd0565b9250613d2760208501613ce7565b9150613d3560408501613ce7565b90509250925092565b600060208284031215613d5057600080fd5b612a2782613cd0565b600082821015613d6b57613d6b613896565b500390565b602081526000612a276020830184612d6a56fea264697066735822122066df8361f3c036ece738b0f64c16a2f743243aca3c631ed5ff2c847284b1826464736f6c634300080d0033",
  "devdoc": {
    "author": "LendLand",
    "kind": "dev",
    "methods": {
      "getAllPools(address)": {
        "details": "This function is not designed to be called in a transaction: it is too gas-intensive",
        "params": {
          "poolRegistryAddress": "The address of the PoolRegistry contract"
        },
        "returns": {
          "_0": "Arrays of all LendLand pools' data"
        }
      },
      "getLeTokenForAsset(address,address,address)": {
        "params": {
          "asset": "The underlyingAsset of LeToken",
          "comptroller": "The pool comptroller",
          "poolRegistryAddress": "The address of the PoolRegistry contract"
        },
        "returns": {
          "_0": "Address of the leToken"
        }
      },
      "getPendingRewards(address,address)": {
        "params": {
          "account": "The user account.",
          "comptrollerAddress": "address"
        },
        "returns": {
          "_0": "Pending rewards array"
        }
      },
      "getPoolBadDebt(address)": {
        "params": {
          "comptrollerAddress": "Address of the comptroller"
        },
        "returns": {
          "_0": "badDebtSummary A struct with comptroller address, total bad debut denominated in usd, and   a break down of bad debt by market"
        }
      },
      "getPoolByComptroller(address,address)": {
        "params": {
          "comptroller": "The Comptroller implementation address",
          "poolRegistryAddress": "The address of the PoolRegistry contract"
        },
        "returns": {
          "_0": "PoolData structure containing the details of the pool"
        }
      },
      "getPoolDataFromLendLandPool(address,(string,address,address,uint256,uint256))": {
        "params": {
          "lendlandPool": "The LendLandPool Object from PoolRegistry",
          "poolRegistryAddress": "Address of the PoolRegistry"
        },
        "returns": {
          "_0": "Enriched PoolData"
        }
      },
      "getPoolsSupportedByAsset(address,address)": {
        "params": {
          "asset": "The underlying asset of leToken",
          "poolRegistryAddress": "The address of the PoolRegistry contract"
        },
        "returns": {
          "_0": "A list of Comptroller contracts"
        }
      },
      "leTokenBalances(address,address)": {
        "params": {
          "account": "The user Account",
          "leToken": "leToken address"
        },
        "returns": {
          "_0": "A struct containing the balances data"
        }
      },
      "leTokenBalancesAll(address[],address)": {
        "params": {
          "account": "The user Account",
          "leTokens": "The list of leToken addresses"
        },
        "returns": {
          "_0": "A list of structs containing balances data"
        }
      },
      "leTokenMetadata(address)": {
        "params": {
          "leToken": "The address of leToken"
        },
        "returns": {
          "_0": "LeTokenMetadata struct"
        }
      },
      "leTokenMetadataAll(address[])": {
        "params": {
          "leTokens": "The list of leToken addresses"
        },
        "returns": {
          "_0": "An array of LeTokenMetadata structs"
        }
      },
      "leTokenUnderlyingPrice(address)": {
        "params": {
          "leToken": "leToken address"
        },
        "returns": {
          "_0": "The price data for each asset"
        }
      },
      "leTokenUnderlyingPriceAll(address[])": {
        "params": {
          "leTokens": "The list of leToken addresses"
        },
        "returns": {
          "_0": "An array containing the price data for each asset"
        }
      }
    },
    "title": "PoolLens",
    "version": 1
  },
  "userdoc": {
    "kind": "user",
    "methods": {
      "getAllPools(address)": {
        "notice": "Queries all pools with addtional details for each of them"
      },
      "getLeTokenForAsset(address,address,address)": {
        "notice": "Returns leToken holding the specified underlying asset in the specified pool"
      },
      "getPendingRewards(address,address)": {
        "notice": "Returns the pending rewards for a user for a given pool."
      },
      "getPoolBadDebt(address)": {
        "notice": "Returns a summary of a pool's bad debt broken down by market"
      },
      "getPoolByComptroller(address,address)": {
        "notice": "Queries the details of a pool identified by Comptroller address"
      },
      "getPoolDataFromLendLandPool(address,(string,address,address,uint256,uint256))": {
        "notice": "Queries additional information for the pool"
      },
      "getPoolsSupportedByAsset(address,address)": {
        "notice": "Returns all pools that support the specified underlying asset"
      },
      "leTokenBalances(address,address)": {
        "notice": "Queries the user's supply/borrow balances in the specified leToken"
      },
      "leTokenBalancesAll(address[],address)": {
        "notice": "Queries the user's supply/borrow balances in leTokens"
      },
      "leTokenMetadata(address)": {
        "notice": "Returns the metadata of LeToken"
      },
      "leTokenMetadataAll(address[])": {
        "notice": "Returns the metadata of all LeTokens"
      },
      "leTokenUnderlyingPrice(address)": {
        "notice": "Returns the price data for the underlying asset of the specified leToken"
      },
      "leTokenUnderlyingPriceAll(address[])": {
        "notice": "Returns the price data for the underlying assets of the specified leTokens"
      }
    },
    "notice": "The `PoolLens` contract is designed to retrieve important information for each registered pool. A list of essential information for all pools within the lending protocol can be acquired through the function `getAllPools()`. Additionally, the following records can be looked up for specific pools and markets: - the leToken balance of a given user; - the pool data (oracle address, associated leToken, liquidation incentive, etc) of a pool via its associated comptroller address; - the leToken address in a pool for a given asset; - a list of all pools that support an asset; - the underlying asset price of a leToken; - the metadata (exchange/borrow/supply rate, total supply, collateral factor, etc) of any leToken.",
    "version": 1
  },
  "storageLayout": {
    "storage": [],
    "types": null
  }
}